:100000000C94F0000C9418010C9418010C94180135
:100010000C9418010C9418010C9418010C941801FC
:100020000C9418010C9418010C9418010C941801EC
:100030000C9418010C9418010C9418010C941801DC
:100040000C9435060C9418010C9452020C942C025A
:100050000C9418010C9418010C9418010C941801BC
:100060000C9418010C94180100407A10F35A00A067
:10007000724E18090010A5D4E80000E87648170071
:1000800000E40B54020000CA9A3B000000E1F505B1
:10009000000080969800000040420F000000A086FB
:1000A00001000000102700000000E803000000002D
:1000B0006400000000000A000000000001000000D1
:1000C00000002C76D888DC674F0823DFC1DFAE59EB
:1000D000E1B1B796E5E3E453C63AE651997696E87E
:1000E000E6C28426EB898C9B62ED407C6FFCEFBC02
:1000F0009C9F40F2BAA56FA5F490055A2AF75C932D
:100100006B6CF9676DC11BFCE0E40D47FEF520E662
:10011000B500D0ED902E0300943577050080841E45
:10012000080000204E0A000000C80C333333330FA0
:10013000986E12831141EF8D2114893BE65516CF3D
:10014000FEE6DB18D1844B381BF77C1D901DA4BB49
:10015000E424203284725E228100C9F124ECA1E5FE
:100160003D27005EBCE2613FDD83C29C7E20A3FD93
:100170001F41009D23BE46DB65F88C11AF32CA5784
:10018000E97400000000240027002A00000000009D
:10019000250028002B0000000008000201000003D9
:1001A0000407000000000000000000000000230021
:1001B00026002900040404040404040402020202C8
:1001C000020203030303030301020408102040801A
:1001D0000102040810200102040810205A095109E4
:1001E00011241FBECFEFD8E0DEBFCDBF22E0AEE9C5
:1001F000B1E001C01D92AA3FB207E1F711E0A0E013
:10020000B1E0ECE8FFE102C005900D92AE39B10714
:10021000D9F710E0CFEED0E004C02197FE010E9494
:10022000B70DCE3ED107C9F70E947F060C94B90FD7
:100230000C940000CF92DF92EF92FF920F931F93E6
:10024000CF93DF936C017A018B01C0E0D0E0CE1533
:10025000DF0581F0D8016D918D01D601ED91FC9102
:100260000190F081E02DC6010995892B11F02196AE
:10027000EECF7E01C701DF91CF911F910F91FF90CB
:10028000EF90DF90CF900895089580E090E008957A
:10029000FC01538D448D252F30E0842F90E0821B8C
:1002A000930B541710F0CF96089501970895FC0111
:1002B000918D828D981761F0828DDF01A80FB11D9D
:1002C0005D968C91928D9F5F9F73928F90E00895C1
:1002D0008FEF9FEF0895FC01918D828D981731F07B
:1002E000828DE80FF11D858D90E008958FEF9FEFCF
:1002F0000895FC01918D228D892F90E0805C9F4FA5
:10030000821B91098F739927089586EA91E00E94D4
:10031000790121E0892B09F420E0822F0895FC0166
:10032000848DDF01A80FB11DA35ABF4F2C91848D7E
:1003300090E001968F739927848FA689B7892C93B3
:10034000A089B1898C91837080648C93938D848D06
:10035000981306C00288F389E02D80818F7D808309
:100360000895EF92FF920F931F93CF93DF93EC01C9
:1003700081E0888F9B8D8C8D981305C0E889F98961
:10038000808185FD26C0F62E0B8D10E00F5F1F4F7C
:100390000F731127E02E8C8DE8120CC00FB607FCEE
:1003A000FACFE889F989808185FFF5CFCE010E94D7
:1003B0008F01F1CF8B8DFE01E80FF11DE35AFF4F46
:1003C000F0829FB7F8940B8FEA89FB898081806265
:1003D0000AC09FB7F894EE89FF896083E889F9899C
:1003E00080818370806480839FBF81E090E0DF9193
:1003F000CF911F910F91FF90EF900895CF93DF93CE
:10040000EC01888D8823C9F0EA89FB89808185FD0C
:1004100005C0A889B9898C9186FD0FC00FB607FC6D
:10042000F5CF808185FFF2CFA889B9898C9185FFAE
:10043000EDCFCE010E948F01E7CFDF91CF910895DC
:1004400080E090E0892B29F00E94850181110C94B5
:10045000000008950E94A40F1F920F920FB60F92F2
:1004600011242F933F934F935F936F937F938F93B9
:100470009F93AF93BF93EF93FF9386EA91E00E941F
:100480008F01FF91EF91BF91AF919F918F917F91DC
:100490006F915F914F913F912F910F900FBE0F90F1
:1004A0001F9018951F920F920FB60F9211242F9341
:1004B0008F939F93EF93FF93E091B601F091B70173
:1004C0008081E091BC01F091BD0182FD12C090815C
:1004D0008091BF018F5F8F732091C001821751F00F
:1004E000E091BF01F0E0EA55FE4F958F8093BF0188
:1004F00001C08081FF91EF919F918F912F910F907B
:100500000FBE0F901F901895DC0180E0615098F0AD
:100510002D91982F9227E92FEF70F0E0EE59FE4FC2
:10052000249192959F70E92FF0E0EE58FE4FE491F0
:10053000822F8E27EBCF0895FC0190810180F281FC
:10054000E02DF8948181892B81832281892F8095E8
:1005500028232283A7E0B0E01197F1F721818223BD
:100560008183A3E2B0E01197F1F780817894EFECFA
:10057000F0E03197F1F7982381E009F480E00895E5
:10058000FC0190810180F281E02D892F809560FF30
:1005900012C0F8942281822382838181892B8183F6
:1005A000A3E2B0E01197F1F78281982B92837894BF
:1005B00087ED90E011C0F8942281822382838181AB
:1005C000892B8183AFEFB0E01197F1F78281982BEF
:1005D000928378948FE090E00197F1F70895DF928D
:1005E000EF92FF920F931F93CF93DF93EC01D62EE0
:1005F000E42E08E010E0FF24F39461E08D2D8F21BC
:1006000009F460E0CE010E94C002FF0C0150110904
:10061000A1F7E11010C0F894E981FA8191818881F5
:10062000809589238183E981FA81928188818095EF
:10063000892382837894DF91CF911F910F91FF904E
:10064000EF90DF900895EF92FF920F931F93CF9357
:10065000DF938C017B0140E065E50E94EF02E7013A
:1006600088E0E80EF11C699140E0C8010E94EF02A9
:10067000CE15DF05C1F7DF91CF911F910F91FF904C
:10068000EF900895DC012C911196ED91FC91129759
:10069000F8948181922F90958923818378948DE7B6
:1006A00043E050E0815021F1DA011197F1F73081F8
:1006B0003223C1F3F8948281892382838181822B42
:1006C00081837894ABE7B7E01197F1F7F8948181D3
:1006D0009823918383E191E00197F1F780812823AA
:1006E00081E009F080E07894E3E6F6E03197F1F7F5
:1006F0000895833081F028F4813099F08230A1F0A0
:1007000008958730A9F08830B9F08430D1F4809111
:1007100080008F7D03C0809180008F778093800060
:10072000089584B58F7702C084B58F7D84BD089508
:100730008091B0008F7703C08091B0008F7D80934F
:10074000B00008953FB7F8948091E4029091E502DB
:10075000A091E602B091E70226B5A89B05C02F3F05
:1007600019F00196A11DB11D3FBFBA2FA92F982FD7
:100770008827820F911DA11DB11DBC01CD0142E052
:10078000660F771F881F991F4A95D1F708956F92BA
:100790007F928F929F92AF92BF92CF92DF92EF9211
:1007A000FF920F931F93CF93DF938C01EB01809106
:1007B0004B0290914C020E944203882309F447C0E7
:1007C000B80180914B0290914C020E94230340E0BB
:1007D0006EEB80914B0290914C020E94EF028E01D1
:1007E0006E0189E0C80ED11C7E01A0904B02B09032
:1007F0004C0288E0882E912C712C66246394C501EC
:100800000E949C0281117628660CE1E08E1A910804
:10081000B1F7F70171927F01CE16DF0631F78091B3
:100820004B0290914C020E944203813081F4F80106
:1008300081918F01811104C0EC15FD05C1F707C03E
:1008400068E0CE010E94840291E02885281390E0A0
:10085000892FDF91CF911F910F91FF90EF90DF9043
:10086000CF90BF90AF909F908F907F906F900895A2
:10087000CF93DF93CDB7DEB729970FB6F894DEBFDD
:100880000FBECDBFBE016F5F7F4F0E94C70388239D
:1008900089F08D818F3361F020F48F3159F489E034
:1008A0000CC08F3519F08F3739F004C08BE005C0CC
:1008B0008AE003C080E001C08CE029960FB6F8946E
:1008C000DEBF0FBECDBFDF91CF910895BF92CF9213
:1008D000DF92EF92FF920F931F93CF93DF93EC0180
:1008E0006B018D85811105C0CE010E9442038111EB
:1008F00005C01B861D861C8680E060C040E060EF5E
:10090000CE010E94EF0201E0E12CB12C11E0CE01FA
:100910000E949C02F82ECE010E949C0291E0F912E6
:1009200003C08130B1F434C02E2D30E0F8121BC06A
:100930008B85181738F4FE01E20FF31F83818023A3
:1009400041F402C0811729F0F12C193058F41C87AA
:1009500009C0FE01EE0DF11D8381802B8383FF24EE
:10096000F39409C0B12EFE01E20FF31F9381802F93
:100970008095892383836F2DCE010E94C0021F5F63
:10098000000F11F4E39401E087E08E1508F0BFCF6B
:10099000113408F4AECFBB86B11002C081E08D8760
:1009A0008B81882309F4A5CFDE011396F6012B96DF
:1009B0008D918193CA17DB07D9F781E0DF91CF9141
:1009C0001F910F91FF90EF90DF90CF90BF9008950F
:1009D0001F93CF93DF93282F30E0F901EA56FE4FA3
:1009E0008491F901E853FE4FD491F901EC54FE4F84
:1009F000C491CC23C1F0162F81110E947903EC2FF2
:100A0000F0E0EE0FFF1FE457FE4FA591B4919FB7A2
:100A1000F894111104C08C91D095D82302C0EC91A8
:100A2000DE2BDC939FBFDF91CF911F9108950F9331
:100A30001F93CF93DF930CED12E060E0F80180810B
:100A40000E94E804CDEDD2E060E088810E94E804D5
:100A500061E0F80180810E94E80483E090E0019762
:100A6000F1F761E08881DF91CF911F910F910C9494
:100A7000E804CF93DF9361E08091DC020E94E804F8
:100A8000CDEDD2E061E088810E94E80483E090E04F
:100A90000197F1F760E08881DF91CF910C94E80431
:100AA000CF93DF9390E0FC01E853FE4F2491FC01CB
:100AB000EC54FE4F8491882361F190E0880F991FD8
:100AC000FC01EE57FE4FC591D491FC01E457FE4F57
:100AD000A591B491611109C09FB7F89488812095C0
:100AE00082238883EC912E230BC0623061F49FB780
:100AF000F8948881322F309583238883EC912E2BB4
:100B00002C939FBF06C08FB7F894E8812E2B2883C3
:100B10008FBFDF91CF9108950F931F93CF93DF93F2
:100B2000D82FC8E007E010E060E08091DC020E946E
:100B3000E8046D2F61708091DD020E94E804C80115
:100B40000197F1F761E08091DC020E94E804C8019E
:100B50000197F1F7D695C15039F760E08091DC023A
:100B60000E94E80461E08091DD020E94E80461E0F7
:100B70008091DC020E94E80460E08091DD020E9426
:100B800050052091DD0230E0F901EA56FE4F8491D4
:100B9000F901E853FE4FD491F901EC54FE4FC49192
:100BA000CC2399F081110E947903EC2FF0E0EE0F35
:100BB000FF1FE655FE4FA591B491EC91ED23C1E0E6
:100BC00009F4C0E0C1110CC001C0C0E060E0809138
:100BD000DD020E94500560E08091DD020E94E80481
:100BE00061E08091DD020E9450058C2FDF91CF9152
:100BF0001F910F9108958F929F92AF92BF92CF92C3
:100C0000DF92EF92FF926B017C010E94A2034B01E5
:100C10005C01C114D104E104F104F1F00E94A203CB
:100C2000DC01CB0188199909AA09BB09883E9340C8
:100C3000A105B10570F321E0C21AD108E108F1085D
:100C400088EE880E83E0981EA11CB11CC114D1044B
:100C5000E104F10419F7DDCFFF90EF90DF90CF9022
:100C6000BF90AF909F908F9008951F920F920FB6F4
:100C70000F9211242F933F938F939F93AF93BF9322
:100C80008091A2019091A301A091A401B091A5012E
:100C90003091E30223E0230F2D3720F40196A11DAC
:100CA000B11D05C026E8230F0296A11DB11D20939A
:100CB000E3028093A2019093A301A093A401B093B7
:100CC000A5018091E4029091E502A091E602B09125
:100CD000E7020196A11DB11D8093E4029093E50205
:100CE000A093E602B093E702BF91AF919F918F91DD
:100CF0003F912F910F900FBE0F901F901895CF939B
:100D0000DF93CDB7DEB7A9970FB6F894DEBF0FBE5D
:100D1000CDBF789484B5826084BD84B5816084BD84
:100D200085B5826085BD85B5816085BD80916E0089
:100D3000816080936E0010928100809181008260BA
:100D400080938100809181008160809381008091F7
:100D500080008160809380008091B10084608093E6
:100D6000B1008091B00081608093B00080917A00E2
:100D7000846080937A0080917A00826080937A0008
:100D800080917A00816080937A0080917A008068F7
:100D900080937A001092C100E091B601F091B70102
:100DA00082E08083E091B201F091B3011082E09182
:100DB000B401F091B5018FEC80831092BE01E091F7
:100DC000BA01F091BB0186E08083E091B801F09117
:100DD000B901808180618083E091B801F091B9010F
:100DE000808188608083E091B801F091B9018081B1
:100DF00080688083E091B801F091B90180818F7D96
:100E00008083E0914B02F0914C0213861586148684
:100E1000DF011B9633961E92EA17FB07E1F710924B
:100E2000490210924A0201E0BE016F5F7F4F80913C
:100E30004B0290914C020E946604882309F465C01D
:100E400067E0CE0101960E94840298858913ECCF59
:100E500080914302811127C080914B0290914C02F6
:100E60000E944203BE016F5F7F4F80914B029091C1
:100E70004C020E94230340E064EB80914B0290916E
:100E80004C020E94EF0280914B0290914C020E9412
:100E90009C02182F80914B0290914C020E944203B9
:100EA000112309F474C0109146028981803109F43C
:100EB000A6C1CE0101960E943804811718F48091D2
:100EC000460209C08981803111F48CE004C0CE0152
:100ED00001960E94380480934602809149028F5FF8
:100EE000809349028981883209F454C038F48031F2
:100EF00009F450C0823209F097CF4CC08B3309F40B
:100F000049C0823409F090CF45C061E08091DC0295
:100F10000E94500561E08091DD020E9450050E9410
:100F2000390584E40E948C050E9417050E9439054A
:100F300086EC0E948C050E9417050E94390580E806
:100F40000E948C050E9417058BE88093DB02E091DC
:100F50004B02F0914C02138615861486DF011B9616
:100F6000CF0103961E92A817B907E1F7BE016E5D87
:100F70007F4FCF010E946604882391F067E0CE0185
:100F800082960E94840299A589130AC03CC10093ED
:100F9000430289CF80914A028F5F80934A0244CFF7
:100FA00060E070E08EEF92EC60939E0170939F0181
:100FB0008093A0019093A10180914B0290914C02EB
:100FC0000E94420340E06CEC80914B0290914C02F5
:100FD0000E94EF024091430264E480914B029091A1
:100FE0004C020E94EF0280914702882309F459C005
:100FF000E0914602E950E33040F4F0E0EE0FFF1FCD
:10100000EA5FFE4F8081918102C08EEE92E06C011A
:10101000990FEE08FF0880914802882361F18091C2
:101020004302811128C08FB7F8948090A20190905C
:10103000A301A090A401B090A5018FBF80914B02A5
:1010400090914C020E949C02813059F12FB7F89484
:101050008091A2019091A301A091A401B091A5015A
:101060002FBF88199909AA09BB098C159D05AE05E2
:10107000BF0520F316C080914402882329F060E068
:10108000809145020E94E804C701B6010E94FB0559
:1010900080914402882329F061E0809145020E94FA
:1010A000E80460919E0170919F018091A001909150
:1010B000A1018E010F5F1F4F22E044E00E940B0A46
:1010C0006C010097C1F0FC0101900020E9F7319715
:1010D0008F01081B190BB8016F5F7F4F80E090E014
:1010E0000E94DE0E7C01009759F0FC011082B601CF
:1010F0000E94B20F07C000E010E0E12CF12C02C00A
:1011000000E010E08091DF0290E0009709F46BC0EE
:10111000980121153105E9F0009741F10197A0915F
:10112000E002B091E102A80FB91F21503109201748
:10113000310740F4E114F10429F0F701E20FF31F45
:10114000E08101C0E0E0F0E0E75AFD4F40814C93C0
:10115000E0CF009759F0019720918902E091E002D9
:10116000F091E102E80FF91F2083F3CFB090DF0286
:10117000C090E002D090E1020E94390580E40E9414
:101180008C050E9417050E94390580EC0E948C0591
:101190008601C12CD12CCB14E0F48091D902F80146
:1011A00081110BC08091DA0290E00C2C02C0969560
:1011B00087950A94E2F780FF03C08081806801C0B0
:1011C00080810E948C05FFEFCF1ADF0A0F5F1F4F4F
:1011D000E2CF0E9417050E9439058091DB020E9430
:1011E0008C050E941705C7010E94550E68EE73E03A
:1011F00080E090E00E94FB050E942002A8CE1D30F6
:1012000008F05DCE62CEBE016F5F7F4FCE01829649
:101210000E94C703882309F441C02A8130E0C90134
:10122000982F8827990F990F990F698128E0629F5D
:10123000B00111249C01262B372B8AA18031D9F4CF
:1012400068856623C1F070E08F81AB01481B5109AE
:10125000CA019695982F8827979587950E948F0D9C
:1012600060527109207F53E0220F331F5A95E1F736
:10127000620F731F01C0B901613854EE75070CF499
:101280008FCE072E000C880B990B0E945F0C20E07C
:1012900030E040E05CE30E949A0C86CE60E874EE99
:1012A000EBCF8091E0029091E102009711F00C9455
:1012B000550E08951092A9011092A80188EE93E0AE
:1012C000A0E0B0E08093AA019093AB01A093AC01A1
:1012D000B093AD0180E991E09093A7018093A601BE
:1012E00085EC90E09093B3018093B20184EC90E0A0
:1012F0009093B5018093B40180EC90E09093B70196
:101300008093B60181EC90E09093B9018093B8018D
:1013100082EC90E09093BB018093BA0186EC90E060
:101320009093BD018093BC011092BF011092C00147
:101330001092C1011092C20180E8ECE0F1E0A9E551
:10134000B2E001900D928A95E1F784E08093DC028F
:1013500093E09093DD028093DF0280E48093E202C9
:101360001092DA028AE88093DB021092D90284E0BC
:1013700090E00E94BD0D9093E1028093E00280E036
:1013800090E0E091E002F091E102E80FF91F108295
:10139000019684309105A9F760E082E00E94500533
:1013A000EAECF1E0E491E093E802E6EBF1E0E491AD
:1013B000F0E0EE0FFF1FE655FE4F8591949190935C
:1013C000EA028093E9021092F3021092F502109261
:1013D000F402E3EFF2E0129282E0EB3EF807D9F775
:1013E00088EE92E090934C0280934B021092490257
:1013F00010924A021092430289E08093460281E0F3
:10140000809347028093480210925802109257022C
:10141000109244020895EF920F931F93CF93DF939E
:10142000E80147FD02C034E001C034E1042E000CA5
:10143000550B57FF03C0519541955109E32E022FDB
:10144000242FAE010E942B0ACE01DF91CF911F9174
:101450000F91EF900895A9E0B0E0E1E3FAE00C9479
:101460005E0D6A01122FB02E2BE3201720F0FF240F
:10147000F394F00E02C02CE3F22E0F2D27E0AE0104
:101480004F5F5F4F0E94850BBC014981842F89709B
:10149000813031F0E1FC06C0E0FE06C090E205C0FC
:1014A0009DE203C09BE201C090E05E2D507143FFBE
:1014B0003CC0911102C083E001C084E0811718F4A0
:1014C000212F281B01C020E051110BC0F601822FF3
:1014D00030E2882319F031938150FBCFC20ED11C2A
:1014E00020E0992329F0D6019C93F60131966F01F3
:1014F000C6010396E2FE0AC03EE4D6013C9341E4F5
:1015000011964C93119712963C9306C03EE6F60155
:10151000308341E641833283FC01322F40E23323A2
:1015200009F442C041933150FACF42FF44C09111B7
:1015300002C083E001C084E0811718F4212F281B2A
:1015400001C020E051110BC0F601822F30E2882348
:1015500019F031938150FBCFC20ED11C20E09923AA
:1015600029F0D6019C93F60131966F01C6010396CE
:10157000E2FE0BC039E4D6013C933EE411963C9365
:10158000119736E412963C9307C039E6F601308392
:101590003EE6318336E63283FC01322F40E23323CC
:1015A00019F041933150FBCFFC01E20FF11D108285
:1015B0008EEF9FEFA6C021E030E0911102C020E045
:1015C00030E0161617061CF4FB01319602C0E1E06C
:1015D000F0E02E0F3F1FBB2021F0EB2DF0E0319605
:1015E00002C0E0E0F0E02E0F3F1FE12FF0E02E17E9
:1015F0003F071CF4121B212F01C020E08E2D8871A3
:1016000059F4F601822F30E2882319F0319381508A
:10161000FBCFC20ED11C20E0992329F0D6019C9368
:10162000F60131966F0151110BC0F601822F90E344
:10163000882319F091938150FBCFC20ED11C20E07A
:101640000F2D060F9A81342F307144FF03C0913360
:1016500009F40150101624F4093018F008E001C014
:1016600001E0AB0177FF02C040E050E0FB01E41B6A
:10167000F50BA1E0B0E0AC0FBD1FEA0FFB1F8EE23F
:10168000A82E4B01801A91080B2D10E011950195A1
:1016900011094F3FBFEF5B0721F4D601AC921196C1
:1016A0006D01641775072CF08416950614F481817A
:1016B00001C080E3415051093196D60111967D0158
:1016C0004017510724F0D6018C936701E2CF6417CD
:1016D000750739F4963320F4953319F4311101C0AC
:1016E00081E3F6018083F701822F90E2882319F0CD
:1016F00091938150FBCFF701E20FF11D108280E042
:1017000090E02996ECE00C947A0D283008F027E060
:101710003327DA01990F311D87FD9160009661052D
:10172000710539F432602E5F3D9330E32A95E1F77D
:1017300008959F3F30F080387105610509F03C5FE6
:101740003C5F3D93913008F08068911DDF93CF930B
:101750001F930F93FF92EF92192F987F9695E92F81
:1017600096959695E90FFF27EE53FF4F992733275C
:10177000EE24FF24A701E70105900894079428F4BC
:10178000360FE71EF81E491F511D660F771F881F71
:10179000991F0694A1F70590079428F4E70EF81E08
:1017A000491F561FC11D770F881F991F661F06947A
:1017B000A1F70590079428F4F80E491F561FC71F7C
:1017C000D11D880F991F661F771F0694A1F70590FA
:1017D000079420F4490F561FC71FD81F990F661F83
:1017E000771F881F0694A9F784911095177041F010
:1017F000D695C79557954795F794E7941A95C1F7ED
:10180000E8E6F0E068941590159135916591959111
:1018100005907FE27395E118F10A430B560BC90B53
:10182000D009C0F7E10CF11E431F561FC91FD01D80
:101830007EF4703311F48A95E6CFE894015030F0CD
:10184000080F0AF40027021708F4202F2395022F0F
:101850007A3328F079E37D932A95E9F710C07D93D8
:101860002A9589F606949795679537951795179455
:10187000E118F10A430B560BC90BD00998F02395D8
:101880007E9173957A3308F070E37C932013B8F758
:101890007E9170617D9330F0839571E37D9370E369
:1018A0002A95E1F71124EF90FF900F911F91CF91AE
:1018B000DF91992787FD90950895E89409C097FBDB
:1018C0003EF490958095709561957F4F8F4F9F4F17
:1018D0009923A9F0F92F96E9BB279395F69587955B
:1018E00077956795B795F111F8CFFAF4BB0F11F41E
:1018F00060FF1BC06F5F7F4F8F4F9F4F16C08823C5
:1019000011F096E911C0772321F09EE8872F762FFA
:1019100005C0662371F096E8862F70E060E02AF03B
:101920009A95660F771F881FDAF7880F9695879527
:1019300097F908950E94AD0C0C941E0D0E94100D95
:1019400038F00E94170D20F0952311F00C94070D2C
:101950000C940D0D11240C94520D0E942F0D70F358
:10196000959FC1F3950F50E0551F629FF001729F44
:10197000BB27F00DB11D639FAA27F00DB11DAA1F53
:10198000649F6627B00DA11D661F829F2227B00DA0
:10199000A11D621F739FB00DA11D621F839FA00D2B
:1019A000611D221F749F3327A00D611D231F849F7B
:1019B000600D211D822F762F6A2F11249F575040D2
:1019C0009AF0F1F088234AF0EE0FFF1FBB1F661F4D
:1019D000771F881F91505040A9F79E3F510580F016
:1019E0000C94070D0C94520D5F3FE4F3983ED4F332
:1019F000869577956795B795F795E7959F5FC1F7BA
:101A0000FE2B880F911D9695879597F9089597F964
:101A10009F6780E870E060E008959FEF80EC089594
:101A200000240A94161617061806090608950024BD
:101A30000A9412161306140605060895092E039437
:101A4000000C11F4882352F0BB0F40F4BF2B11F4AB
:101A500060FF04C06F5F7F4F8F4F9F4F089557FD0A
:101A60009058440F551F59F05F3F71F04795880F0C
:101A700097FB991F61F09F3F79F0879508951216A3
:101A800013061406551FF2CF4695F1DF08C016164F
:101A900017061806991FF1CF869571056105089400
:101AA0000895E894BB2766277727CB0197F9089517
:101AB0002F923F924F925F926F927F928F929F925E
:101AC000AF92BF92CF92DF92EF92FF920F931F934C
:101AD000CF93DF93CDB7DEB7CA1BDB0B0FB6F894FD
:101AE000DEBF0FBECDBF09942A88398848885F843D
:101AF0006E847D848C849B84AA84B984C884DF80AE
:101B0000EE80FD800C811B81AA81B981CE0FD11D91
:101B10000FB6F894DEBF0FBECDBFED01089597FB61
:101B2000072E16F4009407D077FD09D00E94A30D6C
:101B300007FC05D03EF4909581959F4F08957095D0
:101B400061957F4F0895AA1BBB1B51E107C0AA1FD7
:101B5000BB1FA617B70710F0A61BB70B881F991F4E
:101B60005A95A9F780959095BC01CD010895EE0F87
:101B7000FF1F0590F491E02D09940F931F93CF93CD
:101B8000DF938230910510F482E090E0E091F8025A
:101B9000F091F90220E030E0A0E0B0E0309719F1D8
:101BA000408151810281138148175907C8F0841779
:101BB000950769F4109731F012960C9312971396CB
:101BC0001C9327C00093F8021093F90222C021153C
:101BD000310519F04217530718F49A01BD01EF01BE
:101BE000DF01F801DBCF21153105F9F0281B390B96
:101BF0002430310580F48A819B816115710521F0C3
:101C0000FB019383828304C09093F9028093F802CE
:101C1000FE01329644C0FE01E20FF31F81939193BF
:101C200022503109398328833AC02091F60230913D
:101C3000F702232B41F420910201309103013093EC
:101C4000F7022093F6022091000130910101211545
:101C5000310541F42DB73EB7409104015091050183
:101C6000241B350BE091F602F091F702E217F3071F
:101C7000A0F42E1B3F0B2817390778F0AC014E5FFC
:101C80005F4F2417350748F04E0F5F1F5093F70240
:101C90004093F6028193919302C0E0E0F0E0CF011F
:101CA000DF91CF911F910F910895CF93DF9300970C
:101CB00009F481C0FC01329713821282A091F802CC
:101CC000B091F902109781F420813181820F931F26
:101CD0002091F6023091F7022817390751F5F09359
:101CE000F702E093F60267C0ED0120E030E0CE1786
:101CF000DF0740F44A815B819E0141155105F1F0F7
:101D0000EA01F5CFD383C28340815181840F951FAF
:101D1000C817D90759F488819981840F951F0296B5
:101D2000918380838A819B819383828321153105EE
:101D300029F4F093F902E093F8023DC0E901FB8336
:101D4000EA8349915991C40FD51FEC17FD0761F43F
:101D500080819181840F951F0296E9019983888380
:101D6000828193819B838A83E0E0F0E012968D91DB
:101D70009C911397009719F0FD01DC01F7CF8D912D
:101D80009C9111979D012E5F3F4F820F931F2091D1
:101D9000F6023091F7022817390769F4309729F4D1
:101DA0001092F9021092F80202C013821282B093CC
:101DB000F702A093F602DF91CF910895A0E0B0E082
:101DC000E4EEFEE00C945C0DEC01009721F4CB01F5
:101DD0000E94BD0DB4C0FC01E60FF71F9C0122500C
:101DE0003109E217F30708F4A8C0D9010D911C913D
:101DF000119706171707B0F00530110508F49BC0BE
:101E0000C80104978617970708F495C00250110976
:101E1000061B170B019311936D937C93CF010E94C6
:101E2000550E89C05B01A01AB10A4C01800E911EAB
:101E3000A091F802B091F902612C712CE12CF12CE7
:101E4000109709F446C08D919C911197A815B9057A
:101E5000B1F56C0142E0C40ED11CCA14DB0478F168
:101E60004C018A189B08640142E0C40ED11C1296F2
:101E7000BC9012971396AC91B5E0CB16D10440F00C
:101E8000B282A38391828082D9016D937C9309C031
:101E90000E5F1F4F800F911FF90191838083EB2DFF
:101EA000FA2FE114F10431F0D7011396FC93EE936D
:101EB000129741C0F093F902E093F8023CC0681613
:101EC000790608F43C017D0112960D90BC91A02D7D
:101ED000B7CF8091F6029091F70288169906E1F447
:101EE00066167706C8F48091000190910101009771
:101EF00041F48DB79EB74091040150910501841BB8
:101F0000950BE817F907C8F4F093F702E093F6028F
:101F1000F901718360830FC0CB010E94BD0D7C016C
:101F2000009759F0A801BE010E94A90FCE010E949E
:101F3000550EC70104C0CE0102C080E090E0CDB7CD
:101F4000DEB7EEE00C94780D81E090E0F8940C940C
:101F5000B90FFB01DC0102C001900D9241505040CD
:101F6000D8F70895FB01DC0101900D920020E1F704
:101F7000089510E0CFEED0E004C0FE010E94B70D3E
:0C1F80002196C03FD107C9F7F894FFCFAD
:101F8C000000FA0220005E00BC0077010000000097
:101F9C000000000000000000000000000000000035
:101FAC000000000000000000000000000000220003
:101FBC006D000020390F0000104080523F065B4F2F
:101FCC00666D7D077F6F00000048005300777C39F9
:101FDC005E79713D76301E003800543F7367506D4A
:101FEC00783E0000006E5B3964000F0820777C5847
:101FFC005E79713D74041E003800545C7367506D3B
:10200C00783E0000006E5B39300F4000000000008D
:0E201C00B1011A014801FE01790157016B0163
:00000001FF
